{
  "_format": "hh-sol-artifact-1",
  "contractName": "BEE",
  "sourceName": "contracts/Bee.sol",
  "abi": [
    {
      "inputs": [
        {
          "internalType": "string",
          "name": "name",
          "type": "string"
        },
        {
          "internalType": "string",
          "name": "symbol",
          "type": "string"
        },
        {
          "internalType": "uint256",
          "name": "_maxBatchSize",
          "type": "uint256"
        },
        {
          "internalType": "uint256",
          "name": "_collectionSize",
          "type": "uint256"
        }
      ],
      "stateMutability": "nonpayable",
      "type": "constructor"
    },
    {
      "anonymous": false,
      "inputs": [
        {
          "indexed": true,
          "internalType": "address",
          "name": "owner",
          "type": "address"
        },
        {
          "indexed": true,
          "internalType": "address",
          "name": "approved",
          "type": "address"
        },
        {
          "indexed": true,
          "internalType": "uint256",
          "name": "tokenId",
          "type": "uint256"
        }
      ],
      "name": "Approval",
      "type": "event"
    },
    {
      "anonymous": false,
      "inputs": [
        {
          "indexed": true,
          "internalType": "address",
          "name": "owner",
          "type": "address"
        },
        {
          "indexed": true,
          "internalType": "address",
          "name": "operator",
          "type": "address"
        },
        {
          "indexed": false,
          "internalType": "bool",
          "name": "approved",
          "type": "bool"
        }
      ],
      "name": "ApprovalForAll",
      "type": "event"
    },
    {
      "anonymous": false,
      "inputs": [
        {
          "indexed": true,
          "internalType": "address",
          "name": "previousOwner",
          "type": "address"
        },
        {
          "indexed": true,
          "internalType": "address",
          "name": "newOwner",
          "type": "address"
        }
      ],
      "name": "OwnershipTransferred",
      "type": "event"
    },
    {
      "anonymous": false,
      "inputs": [
        {
          "indexed": true,
          "internalType": "address",
          "name": "from",
          "type": "address"
        },
        {
          "indexed": true,
          "internalType": "address",
          "name": "to",
          "type": "address"
        },
        {
          "indexed": true,
          "internalType": "uint256",
          "name": "tokenId",
          "type": "uint256"
        }
      ],
      "name": "Transfer",
      "type": "event"
    },
    {
      "inputs": [
        {
          "internalType": "address",
          "name": "",
          "type": "address"
        }
      ],
      "name": "_whitelist",
      "outputs": [
        {
          "internalType": "bool",
          "name": "",
          "type": "bool"
        }
      ],
      "stateMutability": "view",
      "type": "function"
    },
    {
      "inputs": [
        {
          "internalType": "uint256",
          "name": "_quantity",
          "type": "uint256"
        }
      ],
      "name": "adoptBunny",
      "outputs": [],
      "stateMutability": "payable",
      "type": "function"
    },
    {
      "inputs": [],
      "name": "adoptionLimit",
      "outputs": [
        {
          "internalType": "uint256",
          "name": "",
          "type": "uint256"
        }
      ],
      "stateMutability": "view",
      "type": "function"
    },
    {
      "inputs": [
        {
          "internalType": "address",
          "name": "to",
          "type": "address"
        },
        {
          "internalType": "uint256",
          "name": "tokenId",
          "type": "uint256"
        }
      ],
      "name": "approve",
      "outputs": [],
      "stateMutability": "nonpayable",
      "type": "function"
    },
    {
      "inputs": [
        {
          "internalType": "address",
          "name": "owner",
          "type": "address"
        }
      ],
      "name": "balanceOf",
      "outputs": [
        {
          "internalType": "uint256",
          "name": "",
          "type": "uint256"
        }
      ],
      "stateMutability": "view",
      "type": "function"
    },
    {
      "inputs": [],
      "name": "currentSupply",
      "outputs": [
        {
          "internalType": "uint256",
          "name": "",
          "type": "uint256"
        }
      ],
      "stateMutability": "view",
      "type": "function"
    },
    {
      "inputs": [
        {
          "internalType": "uint256",
          "name": "tokenId",
          "type": "uint256"
        }
      ],
      "name": "getApproved",
      "outputs": [
        {
          "internalType": "address",
          "name": "",
          "type": "address"
        }
      ],
      "stateMutability": "view",
      "type": "function"
    },
    {
      "inputs": [],
      "name": "getBalance",
      "outputs": [
        {
          "internalType": "uint256",
          "name": "",
          "type": "uint256"
        }
      ],
      "stateMutability": "view",
      "type": "function"
    },
    {
      "inputs": [],
      "name": "getBaseURI",
      "outputs": [
        {
          "internalType": "string",
          "name": "",
          "type": "string"
        }
      ],
      "stateMutability": "view",
      "type": "function"
    },
    {
      "inputs": [],
      "name": "getMaxBatchSize",
      "outputs": [
        {
          "internalType": "uint256",
          "name": "",
          "type": "uint256"
        }
      ],
      "stateMutability": "view",
      "type": "function"
    },
    {
      "inputs": [],
      "name": "getMaxSupply",
      "outputs": [
        {
          "internalType": "uint256",
          "name": "",
          "type": "uint256"
        }
      ],
      "stateMutability": "view",
      "type": "function"
    },
    {
      "inputs": [
        {
          "internalType": "address",
          "name": "owner",
          "type": "address"
        }
      ],
      "name": "getMintedCountByOwner",
      "outputs": [
        {
          "internalType": "uint256",
          "name": "",
          "type": "uint256"
        }
      ],
      "stateMutability": "view",
      "type": "function"
    },
    {
      "inputs": [
        {
          "internalType": "uint256",
          "name": "tokenId",
          "type": "uint256"
        }
      ],
      "name": "getOwnershipData",
      "outputs": [
        {
          "components": [
            {
              "internalType": "address",
              "name": "addr",
              "type": "address"
            },
            {
              "internalType": "uint64",
              "name": "startTimestamp",
              "type": "uint64"
            }
          ],
          "internalType": "struct ERC721A.TokenOwnership",
          "name": "",
          "type": "tuple"
        }
      ],
      "stateMutability": "view",
      "type": "function"
    },
    {
      "inputs": [
        {
          "internalType": "address",
          "name": "owner",
          "type": "address"
        },
        {
          "internalType": "address",
          "name": "operator",
          "type": "address"
        }
      ],
      "name": "isApprovedForAll",
      "outputs": [
        {
          "internalType": "bool",
          "name": "",
          "type": "bool"
        }
      ],
      "stateMutability": "view",
      "type": "function"
    },
    {
      "inputs": [],
      "name": "name",
      "outputs": [
        {
          "internalType": "string",
          "name": "",
          "type": "string"
        }
      ],
      "stateMutability": "view",
      "type": "function"
    },
    {
      "inputs": [],
      "name": "nextOwnerToExplicitlySet",
      "outputs": [
        {
          "internalType": "uint256",
          "name": "",
          "type": "uint256"
        }
      ],
      "stateMutability": "view",
      "type": "function"
    },
    {
      "inputs": [],
      "name": "owner",
      "outputs": [
        {
          "internalType": "address",
          "name": "",
          "type": "address"
        }
      ],
      "stateMutability": "view",
      "type": "function"
    },
    {
      "inputs": [
        {
          "internalType": "uint256",
          "name": "tokenId",
          "type": "uint256"
        }
      ],
      "name": "ownerOf",
      "outputs": [
        {
          "internalType": "address",
          "name": "",
          "type": "address"
        }
      ],
      "stateMutability": "view",
      "type": "function"
    },
    {
      "inputs": [],
      "name": "price",
      "outputs": [
        {
          "internalType": "uint256",
          "name": "",
          "type": "uint256"
        }
      ],
      "stateMutability": "view",
      "type": "function"
    },
    {
      "inputs": [],
      "name": "renounceOwnership",
      "outputs": [],
      "stateMutability": "nonpayable",
      "type": "function"
    },
    {
      "inputs": [],
      "name": "revealBee",
      "outputs": [],
      "stateMutability": "nonpayable",
      "type": "function"
    },
    {
      "inputs": [
        {
          "internalType": "address",
          "name": "from",
          "type": "address"
        },
        {
          "internalType": "address",
          "name": "to",
          "type": "address"
        },
        {
          "internalType": "uint256",
          "name": "tokenId",
          "type": "uint256"
        }
      ],
      "name": "safeTransferFrom",
      "outputs": [],
      "stateMutability": "nonpayable",
      "type": "function"
    },
    {
      "inputs": [
        {
          "internalType": "address",
          "name": "from",
          "type": "address"
        },
        {
          "internalType": "address",
          "name": "to",
          "type": "address"
        },
        {
          "internalType": "uint256",
          "name": "tokenId",
          "type": "uint256"
        },
        {
          "internalType": "bytes",
          "name": "_data",
          "type": "bytes"
        }
      ],
      "name": "safeTransferFrom",
      "outputs": [],
      "stateMutability": "nonpayable",
      "type": "function"
    },
    {
      "inputs": [],
      "name": "saleOpen",
      "outputs": [
        {
          "internalType": "bool",
          "name": "",
          "type": "bool"
        }
      ],
      "stateMutability": "view",
      "type": "function"
    },
    {
      "inputs": [
        {
          "internalType": "address",
          "name": "operator",
          "type": "address"
        },
        {
          "internalType": "bool",
          "name": "approved",
          "type": "bool"
        }
      ],
      "name": "setApprovalForAll",
      "outputs": [],
      "stateMutability": "nonpayable",
      "type": "function"
    },
    {
      "inputs": [
        {
          "internalType": "uint256",
          "name": "_supply",
          "type": "uint256"
        }
      ],
      "name": "setCurrentSupply",
      "outputs": [],
      "stateMutability": "nonpayable",
      "type": "function"
    },
    {
      "inputs": [
        {
          "internalType": "uint256",
          "name": "_price",
          "type": "uint256"
        }
      ],
      "name": "setPrice",
      "outputs": [],
      "stateMutability": "nonpayable",
      "type": "function"
    },
    {
      "inputs": [
        {
          "internalType": "bytes4",
          "name": "interfaceId",
          "type": "bytes4"
        }
      ],
      "name": "supportsInterface",
      "outputs": [
        {
          "internalType": "bool",
          "name": "",
          "type": "bool"
        }
      ],
      "stateMutability": "view",
      "type": "function"
    },
    {
      "inputs": [],
      "name": "symbol",
      "outputs": [
        {
          "internalType": "string",
          "name": "",
          "type": "string"
        }
      ],
      "stateMutability": "view",
      "type": "function"
    },
    {
      "inputs": [],
      "name": "toggleSale",
      "outputs": [],
      "stateMutability": "nonpayable",
      "type": "function"
    },
    {
      "inputs": [
        {
          "internalType": "uint256",
          "name": "index",
          "type": "uint256"
        }
      ],
      "name": "tokenByIndex",
      "outputs": [
        {
          "internalType": "uint256",
          "name": "",
          "type": "uint256"
        }
      ],
      "stateMutability": "view",
      "type": "function"
    },
    {
      "inputs": [
        {
          "internalType": "address",
          "name": "owner",
          "type": "address"
        },
        {
          "internalType": "uint256",
          "name": "index",
          "type": "uint256"
        }
      ],
      "name": "tokenOfOwnerByIndex",
      "outputs": [
        {
          "internalType": "uint256",
          "name": "",
          "type": "uint256"
        }
      ],
      "stateMutability": "view",
      "type": "function"
    },
    {
      "inputs": [
        {
          "internalType": "uint256",
          "name": "_tokenId",
          "type": "uint256"
        }
      ],
      "name": "tokenURI",
      "outputs": [
        {
          "internalType": "string",
          "name": "",
          "type": "string"
        }
      ],
      "stateMutability": "view",
      "type": "function"
    },
    {
      "inputs": [],
      "name": "totalSupply",
      "outputs": [
        {
          "internalType": "uint256",
          "name": "",
          "type": "uint256"
        }
      ],
      "stateMutability": "view",
      "type": "function"
    },
    {
      "inputs": [
        {
          "internalType": "address",
          "name": "from",
          "type": "address"
        },
        {
          "internalType": "address",
          "name": "to",
          "type": "address"
        },
        {
          "internalType": "uint256",
          "name": "tokenId",
          "type": "uint256"
        }
      ],
      "name": "transferFrom",
      "outputs": [],
      "stateMutability": "nonpayable",
      "type": "function"
    },
    {
      "inputs": [
        {
          "internalType": "address",
          "name": "newOwner",
          "type": "address"
        }
      ],
      "name": "transferOwnership",
      "outputs": [],
      "stateMutability": "nonpayable",
      "type": "function"
    },
    {
      "inputs": [
        {
          "internalType": "string",
          "name": "_newBaseURI",
          "type": "string"
        }
      ],
      "name": "updateBaseURI",
      "outputs": [],
      "stateMutability": "nonpayable",
      "type": "function"
    },
    {
      "inputs": [
        {
          "internalType": "address[]",
          "name": "accounts",
          "type": "address[]"
        }
      ],
      "name": "whitelist",
      "outputs": [],
      "stateMutability": "nonpayable",
      "type": "function"
    },
    {
      "inputs": [
        {
          "internalType": "address",
          "name": "_to",
          "type": "address"
        }
      ],
      "name": "withdraw",
      "outputs": [],
      "stateMutability": "nonpayable",
      "type": "function"
    },
    {
      "stateMutability": "payable",
      "type": "receive"
    }
  ],
  "bytecode": "0x60e060405260006001556000600855600f60c0908152506000600b60006101000a81548160ff021916908315150217905550604051806080016040528060528152602001620058c560529139600c90805190602001906200006292919062000296565b506000600d60006101000a81548160ff0219169083151502179055506701aa535d3d0c0000600e556064600f553480156200009c57600080fd5b5060405162005917380380620059178339818101604052810190620000c29190620003cf565b83838383620000e6620000da620001ca60201b60201c565b620001d260201b60201c565b600081116200012c576040517f08c379a00000000000000000000000000000000000000000000000000000000081526004016200012390620004dd565b60405180910390fd5b6000821162000172576040517f08c379a00000000000000000000000000000000000000000000000000000000081526004016200016990620004bb565b60405180910390fd5b83600290805190602001906200018a92919062000296565b508260039080519060200190620001a392919062000296565b508160a0818152505080608081815250505050505060016009819055505050505062000742565b600033905090565b60008060009054906101000a900473ffffffffffffffffffffffffffffffffffffffff169050816000806101000a81548173ffffffffffffffffffffffffffffffffffffffff021916908373ffffffffffffffffffffffffffffffffffffffff1602179055508173ffffffffffffffffffffffffffffffffffffffff168173ffffffffffffffffffffffffffffffffffffffff167f8be0079c531659141344cd1fd0a4f28419497f9722a3daafe3b4186f6b6457e060405160405180910390a35050565b828054620002a490620005af565b90600052602060002090601f016020900481019282620002c8576000855562000314565b82601f10620002e357805160ff191683800117855562000314565b8280016001018555821562000314579182015b8281111562000313578251825591602001919060010190620002f6565b5b50905062000323919062000327565b5090565b5b808211156200034257600081600090555060010162000328565b5090565b60006200035d620003578462000528565b620004ff565b9050828152602081018484840111156200037657600080fd5b6200038384828562000579565b509392505050565b600082601f8301126200039d57600080fd5b8151620003af84826020860162000346565b91505092915050565b600081519050620003c98162000728565b92915050565b60008060008060808587031215620003e657600080fd5b600085015167ffffffffffffffff8111156200040157600080fd5b6200040f878288016200038b565b945050602085015167ffffffffffffffff8111156200042d57600080fd5b6200043b878288016200038b565b93505060406200044e87828801620003b8565b92505060606200046187828801620003b8565b91505092959194509250565b60006200047c6027836200055e565b915062000489826200068a565b604082019050919050565b6000620004a3602e836200055e565b9150620004b082620006d9565b604082019050919050565b60006020820190508181036000830152620004d6816200046d565b9050919050565b60006020820190508181036000830152620004f88162000494565b9050919050565b60006200050b6200051e565b9050620005198282620005e5565b919050565b6000604051905090565b600067ffffffffffffffff8211156200054657620005456200064a565b5b620005518262000679565b9050602081019050919050565b600082825260208201905092915050565b6000819050919050565b60005b83811015620005995780820151818401526020810190506200057c565b83811115620005a9576000848401525b50505050565b60006002820490506001821680620005c857607f821691505b60208210811415620005df57620005de6200061b565b5b50919050565b620005f08262000679565b810181811067ffffffffffffffff821117156200061257620006116200064a565b5b80604052505050565b7f4e487b7100000000000000000000000000000000000000000000000000000000600052602260045260246000fd5b7f4e487b7100000000000000000000000000000000000000000000000000000000600052604160045260246000fd5b6000601f19601f8301169050919050565b7f455243373231413a206d61782062617463682073697a65206d7573742062652060008201527f6e6f6e7a65726f00000000000000000000000000000000000000000000000000602082015250565b7f455243373231413a20636f6c6c656374696f6e206d757374206861766520612060008201527f6e6f6e7a65726f20737570706c79000000000000000000000000000000000000602082015250565b62000733816200056f565b81146200073f57600080fd5b50565b60805160a05160c0516151376200078e60003960008181611c750152611e13015260008181611ded015281816127120152818161273b0152612f5201526000610ef001526151376000f3fe6080604052600436106102345760003560e01c80638da5cb5b1161012e578063c87b56dd116100ab578063e7c00f6e1161006f578063e7c00f6e14610839578063e917a28c14610864578063e985e9c51461088f578063f2fde38b146108cc578063facbb2dc146108f55761023b565b8063c87b56dd1461074f578063cfdb63ac1461078c578063d7224ba0146107c9578063dc547301146107f4578063dfb2d67e1461081d5761023b565b806399288dbb116100f257806399288dbb1461067e578063a035b1fe146106a9578063a22cb465146106d4578063b88d4fde146106fd578063bd8aa780146107265761023b565b80638da5cb5b1461059957806391b7f5ed146105c45780639231ab2a146105ed578063931688cb1461062a57806395d89b41146106535761023b565b80634c0f38c2116101bc578063714c539811610180578063714c5398146104fe578063715018a61461052957806376d840b814610540578063771282f6146105575780637d8966e4146105825761023b565b80634c0f38c2146103f35780634f6ccce71461041e57806351cff8d91461045b5780636352211e1461048457806370a08231146104c15761023b565b806312065fe01161020357806312065fe01461030e57806318160ddd1461033957806323b872dd146103645780632f745c591461038d57806342842e0e146103ca5761023b565b806301ffc9a71461024057806306fdde031461027d578063081812fc146102a8578063095ea7b3146102e55761023b565b3661023b57005b600080fd5b34801561024c57600080fd5b5061026760048036038101906102629190613804565b610932565b6040516102749190613f44565b60405180910390f35b34801561028957600080fd5b50610292610a7c565b60405161029f9190613f5f565b60405180910390f35b3480156102b457600080fd5b506102cf60048036038101906102ca9190613897565b610b0e565b6040516102dc9190613edd565b60405180910390f35b3480156102f157600080fd5b5061030c60048036038101906103079190613787565b610b93565b005b34801561031a57600080fd5b50610323610cac565b604051610330919061433c565b60405180910390f35b34801561034557600080fd5b5061034e610cb4565b60405161035b919061433c565b60405180910390f35b34801561037057600080fd5b5061038b60048036038101906103869190613681565b610cbe565b005b34801561039957600080fd5b506103b460048036038101906103af9190613787565b610cce565b6040516103c1919061433c565b60405180910390f35b3480156103d657600080fd5b506103f160048036038101906103ec9190613681565b610ecc565b005b3480156103ff57600080fd5b50610408610eec565b604051610415919061433c565b60405180910390f35b34801561042a57600080fd5b5061044560048036038101906104409190613897565b610f14565b604051610452919061433c565b60405180910390f35b34801561046757600080fd5b50610482600480360381019061047d919061361c565b610f67565b005b34801561049057600080fd5b506104ab60048036038101906104a69190613897565b6110e9565b6040516104b89190613edd565b60405180910390f35b3480156104cd57600080fd5b506104e860048036038101906104e3919061361c565b6110ff565b6040516104f5919061433c565b60405180910390f35b34801561050a57600080fd5b506105136111e8565b6040516105209190613f5f565b60405180910390f35b34801561053557600080fd5b5061053e61127a565b005b34801561054c57600080fd5b50610555611302565b005b34801561056357600080fd5b5061056c61139b565b604051610579919061433c565b60405180910390f35b34801561058e57600080fd5b506105976113a1565b005b3480156105a557600080fd5b506105ae611449565b6040516105bb9190613edd565b60405180910390f35b3480156105d057600080fd5b506105eb60048036038101906105e69190613897565b611472565b005b3480156105f957600080fd5b50610614600480360381019061060f9190613897565b61150b565b6040516106219190614321565b60405180910390f35b34801561063657600080fd5b50610651600480360381019061064c9190613856565b611523565b005b34801561065f57600080fd5b506106686115b9565b6040516106759190613f5f565b60405180910390f35b34801561068a57600080fd5b5061069361164b565b6040516106a09190613f44565b60405180910390f35b3480156106b557600080fd5b506106be61165e565b6040516106cb919061433c565b60405180910390f35b3480156106e057600080fd5b506106fb60048036038101906106f6919061374b565b611664565b005b34801561070957600080fd5b50610724600480360381019061071f91906136d0565b6117e5565b005b34801561073257600080fd5b5061074d600480360381019061074891906137c3565b611841565b005b34801561075b57600080fd5b5061077660048036038101906107719190613897565b611978565b6040516107839190613f5f565b60405180910390f35b34801561079857600080fd5b506107b360048036038101906107ae919061361c565b611a9c565b6040516107c09190613f44565b60405180910390f35b3480156107d557600080fd5b506107de611abc565b6040516107eb919061433c565b60405180910390f35b34801561080057600080fd5b5061081b60048036038101906108169190613897565b611ac2565b005b61083760048036038101906108329190613897565b611b8c565b005b34801561084557600080fd5b5061084e611de9565b60405161085b919061433c565b60405180910390f35b34801561087057600080fd5b50610879611e11565b604051610886919061433c565b60405180910390f35b34801561089b57600080fd5b506108b660048036038101906108b19190613645565b611e35565b6040516108c39190613f44565b60405180910390f35b3480156108d857600080fd5b506108f360048036038101906108ee919061361c565b611ec9565b005b34801561090157600080fd5b5061091c6004803603810190610917919061361c565b611fc1565b604051610929919061433c565b60405180910390f35b60007f80ac58cd000000000000000000000000000000000000000000000000000000007bffffffffffffffffffffffffffffffffffffffffffffffffffffffff1916827bffffffffffffffffffffffffffffffffffffffffffffffffffffffff191614806109fd57507f5b5e139f000000000000000000000000000000000000000000000000000000007bffffffffffffffffffffffffffffffffffffffffffffffffffffffff1916827bffffffffffffffffffffffffffffffffffffffffffffffffffffffff1916145b80610a6557507f780e9d63000000000000000000000000000000000000000000000000000000007bffffffffffffffffffffffffffffffffffffffffffffffffffffffff1916827bffffffffffffffffffffffffffffffffffffffffffffffffffffffff1916145b80610a755750610a7482611fd3565b5b9050919050565b606060028054610a8b9061470c565b80601f0160208091040260200160405190810160405280929190818152602001828054610ab79061470c565b8015610b045780601f10610ad957610100808354040283529160200191610b04565b820191906000526020600020905b815481529060010190602001808311610ae757829003601f168201915b5050505050905090565b6000610b198261203d565b610b58576040517f08c379a0000000000000000000000000000000000000000000000000000000008152600401610b4f906142e1565b60405180910390fd5b6006600083815260200190815260200160002060009054906101000a900473ffffffffffffffffffffffffffffffffffffffff169050919050565b6000610b9e826110e9565b90508073ffffffffffffffffffffffffffffffffffffffff168373ffffffffffffffffffffffffffffffffffffffff161415610c0f576040517f08c379a0000000000000000000000000000000000000000000000000000000008152600401610c0690614181565b60405180910390fd5b8073ffffffffffffffffffffffffffffffffffffffff16610c2e61204b565b73ffffffffffffffffffffffffffffffffffffffff161480610c5d5750610c5c81610c5761204b565b611e35565b5b610c9c576040517f08c379a0000000000000000000000000000000000000000000000000000000008152600401610c9390614081565b60405180910390fd5b610ca7838383612053565b505050565b600047905090565b6000600154905090565b610cc9838383612105565b505050565b6000610cd9836110ff565b8210610d1a576040517f08c379a0000000000000000000000000000000000000000000000000000000008152600401610d1190613f81565b60405180910390fd5b6000610d24610cb4565b905060008060005b83811015610e8a576000600460008381526020019081526020016000206040518060400160405290816000820160009054906101000a900473ffffffffffffffffffffffffffffffffffffffff1673ffffffffffffffffffffffffffffffffffffffff1673ffffffffffffffffffffffffffffffffffffffff1681526020016000820160149054906101000a900467ffffffffffffffff1667ffffffffffffffff1667ffffffffffffffff16815250509050600073ffffffffffffffffffffffffffffffffffffffff16816000015173ffffffffffffffffffffffffffffffffffffffff1614610e1e57806000015192505b8773ffffffffffffffffffffffffffffffffffffffff168373ffffffffffffffffffffffffffffffffffffffff161415610e765786841415610e67578195505050505050610ec6565b8380610e729061476f565b9450505b508080610e829061476f565b915050610d2c565b506040517f08c379a0000000000000000000000000000000000000000000000000000000008152600401610ebd90614261565b60405180910390fd5b92915050565b610ee7838383604051806020016040528060008152506117e5565b505050565b60007f0000000000000000000000000000000000000000000000000000000000000000905090565b6000610f1e610cb4565b8210610f5f576040517f08c379a0000000000000000000000000000000000000000000000000000000008152600401610f5690614001565b60405180910390fd5b819050919050565b610f6f61204b565b73ffffffffffffffffffffffffffffffffffffffff16610f8d611449565b73ffffffffffffffffffffffffffffffffffffffff1614610fe3576040517f08c379a0000000000000000000000000000000000000000000000000000000008152600401610fda90614101565b60405180910390fd5b60026009541415611029576040517f08c379a000000000000000000000000000000000000000000000000000000000815260040161102090614281565b60405180910390fd5b600260098190555060008173ffffffffffffffffffffffffffffffffffffffff164760405161105790613ec8565b60006040518083038185875af1925050503d8060008114611094576040519150601f19603f3d011682016040523d82523d6000602084013e611099565b606091505b50509050806110dd576040517f08c379a00000000000000000000000000000000000000000000000000000000081526004016110d4906141a1565b60405180910390fd5b50600160098190555050565b60006110f4826126be565b600001519050919050565b60008073ffffffffffffffffffffffffffffffffffffffff168273ffffffffffffffffffffffffffffffffffffffff161415611170576040517f08c379a0000000000000000000000000000000000000000000000000000000008152600401611167906140a1565b60405180910390fd5b600560008373ffffffffffffffffffffffffffffffffffffffff1673ffffffffffffffffffffffffffffffffffffffff16815260200190815260200160002060000160009054906101000a90046fffffffffffffffffffffffffffffffff166fffffffffffffffffffffffffffffffff169050919050565b6060600c80546111f79061470c565b80601f01602080910402602001604051908101604052809291908181526020018280546112239061470c565b80156112705780601f1061124557610100808354040283529160200191611270565b820191906000526020600020905b81548152906001019060200180831161125357829003601f168201915b5050505050905090565b61128261204b565b73ffffffffffffffffffffffffffffffffffffffff166112a0611449565b73ffffffffffffffffffffffffffffffffffffffff16146112f6576040517f08c379a00000000000000000000000000000000000000000000000000000000081526004016112ed90614101565b60405180910390fd5b61130060006128c1565b565b61130a61204b565b73ffffffffffffffffffffffffffffffffffffffff16611328611449565b73ffffffffffffffffffffffffffffffffffffffff161461137e576040517f08c379a000000000000000000000000000000000000000000000000000000000815260040161137590614101565b60405180910390fd5b6001600d60006101000a81548160ff021916908315150217905550565b600f5481565b6113a961204b565b73ffffffffffffffffffffffffffffffffffffffff166113c7611449565b73ffffffffffffffffffffffffffffffffffffffff161461141d576040517f08c379a000000000000000000000000000000000000000000000000000000000815260040161141490614101565b60405180910390fd5b600b60009054906101000a900460ff1615600b60006101000a81548160ff021916908315150217905550565b60008060009054906101000a900473ffffffffffffffffffffffffffffffffffffffff16905090565b61147a61204b565b73ffffffffffffffffffffffffffffffffffffffff16611498611449565b73ffffffffffffffffffffffffffffffffffffffff16146114ee576040517f08c379a00000000000000000000000000000000000000000000000000000000081526004016114e590614101565b60405180910390fd5b670de0b6b3a764000081611502919061453a565b600e8190555050565b611513613370565b61151c826126be565b9050919050565b61152b61204b565b73ffffffffffffffffffffffffffffffffffffffff16611549611449565b73ffffffffffffffffffffffffffffffffffffffff161461159f576040517f08c379a000000000000000000000000000000000000000000000000000000000815260040161159690614101565b60405180910390fd5b80600c90805190602001906115b59291906133aa565b5050565b6060600380546115c89061470c565b80601f01602080910402602001604051908101604052809291908181526020018280546115f49061470c565b80156116415780601f1061161657610100808354040283529160200191611641565b820191906000526020600020905b81548152906001019060200180831161162457829003601f168201915b5050505050905090565b600b60009054906101000a900460ff1681565b600e5481565b61166c61204b565b73ffffffffffffffffffffffffffffffffffffffff168273ffffffffffffffffffffffffffffffffffffffff1614156116da576040517f08c379a00000000000000000000000000000000000000000000000000000000081526004016116d190614121565b60405180910390fd5b80600760006116e761204b565b73ffffffffffffffffffffffffffffffffffffffff1673ffffffffffffffffffffffffffffffffffffffff16815260200190815260200160002060008473ffffffffffffffffffffffffffffffffffffffff1673ffffffffffffffffffffffffffffffffffffffff16815260200190815260200160002060006101000a81548160ff0219169083151502179055508173ffffffffffffffffffffffffffffffffffffffff1661179461204b565b73ffffffffffffffffffffffffffffffffffffffff167f17307eab39ab6107e8899845ad3d59bd9653f200f220920489ca2b5937696c31836040516117d99190613f44565b60405180910390a35050565b6117f0848484612105565b6117fc84848484612985565b61183b576040517f08c379a0000000000000000000000000000000000000000000000000000000008152600401611832906141c1565b60405180910390fd5b50505050565b61184961204b565b73ffffffffffffffffffffffffffffffffffffffff16611867611449565b73ffffffffffffffffffffffffffffffffffffffff16146118bd576040517f08c379a00000000000000000000000000000000000000000000000000000000081526004016118b490614101565b60405180910390fd5b60005b815181101561197457600160106000848481518110611908577f4e487b7100000000000000000000000000000000000000000000000000000000600052603260045260246000fd5b602002602001015173ffffffffffffffffffffffffffffffffffffffff1673ffffffffffffffffffffffffffffffffffffffff16815260200190815260200160002060006101000a81548160ff021916908315150217905550808061196c9061476f565b9150506118c0565b5050565b60606119838261203d565b6119c2576040517f08c379a00000000000000000000000000000000000000000000000000000000081526004016119b9906140e1565b60405180910390fd5b600d60009054906101000a900460ff1615611a0957600c6119e283612b1c565b6040516020016119f3929190613e99565b6040516020818303038152906040529050611a97565b600c8054611a169061470c565b80601f0160208091040260200160405190810160405280929190818152602001828054611a429061470c565b8015611a8f5780601f10611a6457610100808354040283529160200191611a8f565b820191906000526020600020905b815481529060010190602001808311611a7257829003601f168201915b505050505090505b919050565b60106020528060005260406000206000915054906101000a900460ff1681565b60085481565b611aca61204b565b73ffffffffffffffffffffffffffffffffffffffff16611ae8611449565b73ffffffffffffffffffffffffffffffffffffffff1614611b3e576040517f08c379a0000000000000000000000000000000000000000000000000000000008152600401611b3590614101565b60405180910390fd5b600f548111611b82576040517f08c379a0000000000000000000000000000000000000000000000000000000008152600401611b7990613fa1565b60405180910390fd5b80600f8190555050565b600f5481611b98610cb4565b611ba291906144b3565b10611be2576040517f08c379a0000000000000000000000000000000000000000000000000000000008152600401611bd9906142a1565b60405180910390fd5b611bea611449565b73ffffffffffffffffffffffffffffffffffffffff16611c0861204b565b73ffffffffffffffffffffffffffffffffffffffff1614611d8b5780600e54611c31919061453a565b341015611c73576040517f08c379a0000000000000000000000000000000000000000000000000000000008152600401611c6a90614221565b60405180910390fd5b7f000000000000000000000000000000000000000000000000000000000000000081611c9e33611fc1565b611ca891906144b3565b1115611ce9576040517f08c379a0000000000000000000000000000000000000000000000000000000008152600401611ce090614061565b60405180910390fd5b601060003373ffffffffffffffffffffffffffffffffffffffff1673ffffffffffffffffffffffffffffffffffffffff16815260200190815260200160002060009054906101000a900460ff16611d8a57600b60009054906101000a900460ff16611d89576040517f08c379a0000000000000000000000000000000000000000000000000000000008152600401611d8090614161565b60405180910390fd5b5b5b611d953382612cc9565b611d9d611449565b73ffffffffffffffffffffffffffffffffffffffff163373ffffffffffffffffffffffffffffffffffffffff1614611de657611de581600e54611de0919061453a565b612ce7565b5b50565b60007f0000000000000000000000000000000000000000000000000000000000000000905090565b7f000000000000000000000000000000000000000000000000000000000000000081565b6000600760008473ffffffffffffffffffffffffffffffffffffffff1673ffffffffffffffffffffffffffffffffffffffff16815260200190815260200160002060008373ffffffffffffffffffffffffffffffffffffffff1673ffffffffffffffffffffffffffffffffffffffff16815260200190815260200160002060009054906101000a900460ff16905092915050565b611ed161204b565b73ffffffffffffffffffffffffffffffffffffffff16611eef611449565b73ffffffffffffffffffffffffffffffffffffffff1614611f45576040517f08c379a0000000000000000000000000000000000000000000000000000000008152600401611f3c90614101565b60405180910390fd5b600073ffffffffffffffffffffffffffffffffffffffff168173ffffffffffffffffffffffffffffffffffffffff161415611fb5576040517f08c379a0000000000000000000000000000000000000000000000000000000008152600401611fac90613fc1565b60405180910390fd5b611fbe816128c1565b50565b6000611fcc82612d88565b9050919050565b60007f01ffc9a7000000000000000000000000000000000000000000000000000000007bffffffffffffffffffffffffffffffffffffffffffffffffffffffff1916827bffffffffffffffffffffffffffffffffffffffffffffffffffffffff1916149050919050565b600060015482109050919050565b600033905090565b826006600084815260200190815260200160002060006101000a81548173ffffffffffffffffffffffffffffffffffffffff021916908373ffffffffffffffffffffffffffffffffffffffff160217905550818373ffffffffffffffffffffffffffffffffffffffff168273ffffffffffffffffffffffffffffffffffffffff167f8c5be1e5ebec7d5bd14f71427d1e84f3dd0314c0f7b2291e5b200ac8c7c3b92560405160405180910390a4505050565b6000612110826126be565b90506000816000015173ffffffffffffffffffffffffffffffffffffffff1661213761204b565b73ffffffffffffffffffffffffffffffffffffffff161480612193575061215c61204b565b73ffffffffffffffffffffffffffffffffffffffff1661217b84610b0e565b73ffffffffffffffffffffffffffffffffffffffff16145b806121af57506121ae82600001516121a961204b565b611e35565b5b9050806121f1576040517f08c379a00000000000000000000000000000000000000000000000000000000081526004016121e890614141565b60405180910390fd5b8473ffffffffffffffffffffffffffffffffffffffff16826000015173ffffffffffffffffffffffffffffffffffffffff1614612263576040517f08c379a000000000000000000000000000000000000000000000000000000000815260040161225a906140c1565b60405180910390fd5b600073ffffffffffffffffffffffffffffffffffffffff168473ffffffffffffffffffffffffffffffffffffffff1614156122d3576040517f08c379a00000000000000000000000000000000000000000000000000000000081526004016122ca90614021565b60405180910390fd5b6122e08585856001612e71565b6122f06000848460000151612053565b6001600560008773ffffffffffffffffffffffffffffffffffffffff1673ffffffffffffffffffffffffffffffffffffffff16815260200190815260200160002060000160008282829054906101000a90046fffffffffffffffffffffffffffffffff1661235e9190614594565b92506101000a8154816fffffffffffffffffffffffffffffffff02191690836fffffffffffffffffffffffffffffffff1602179055506001600560008673ffffffffffffffffffffffffffffffffffffffff1673ffffffffffffffffffffffffffffffffffffffff16815260200190815260200160002060000160008282829054906101000a90046fffffffffffffffffffffffffffffffff16612402919061446d565b92506101000a8154816fffffffffffffffffffffffffffffffff02191690836fffffffffffffffffffffffffffffffff16021790555060405180604001604052808573ffffffffffffffffffffffffffffffffffffffff1681526020014267ffffffffffffffff168152506004600085815260200190815260200160002060008201518160000160006101000a81548173ffffffffffffffffffffffffffffffffffffffff021916908373ffffffffffffffffffffffffffffffffffffffff16021790555060208201518160000160146101000a81548167ffffffffffffffff021916908367ffffffffffffffff160217905550905050600060018461250891906144b3565b9050600073ffffffffffffffffffffffffffffffffffffffff166004600083815260200190815260200160002060000160009054906101000a900473ffffffffffffffffffffffffffffffffffffffff1673ffffffffffffffffffffffffffffffffffffffff16141561264e5761257e8161203d565b1561264d576040518060400160405280846000015173ffffffffffffffffffffffffffffffffffffffff168152602001846020015167ffffffffffffffff168152506004600083815260200190815260200160002060008201518160000160006101000a81548173ffffffffffffffffffffffffffffffffffffffff021916908373ffffffffffffffffffffffffffffffffffffffff16021790555060208201518160000160146101000a81548167ffffffffffffffff021916908367ffffffffffffffff1602179055509050505b5b838573ffffffffffffffffffffffffffffffffffffffff168773ffffffffffffffffffffffffffffffffffffffff167fddf252ad1be2c89b69c2b068fc378daa952ba7f163c4a11628f55a4df523b3ef60405160405180910390a46126b68686866001612e77565b505050505050565b6126c6613370565b6126cf8261203d565b61270e576040517f08c379a000000000000000000000000000000000000000000000000000000000815260040161270590613fe1565b60405180910390fd5b60007f000000000000000000000000000000000000000000000000000000000000000083106127725760017f00000000000000000000000000000000000000000000000000000000000000008461276591906145c8565b61276f91906144b3565b90505b60008390505b818110612880576000600460008381526020019081526020016000206040518060400160405290816000820160009054906101000a900473ffffffffffffffffffffffffffffffffffffffff1673ffffffffffffffffffffffffffffffffffffffff1673ffffffffffffffffffffffffffffffffffffffff1681526020016000820160149054906101000a900467ffffffffffffffff1667ffffffffffffffff1667ffffffffffffffff16815250509050600073ffffffffffffffffffffffffffffffffffffffff16816000015173ffffffffffffffffffffffffffffffffffffffff161461286c578093505050506128bc565b508080612878906146e2565b915050612778565b506040517f08c379a00000000000000000000000000000000000000000000000000000000081526004016128b3906142c1565b60405180910390fd5b919050565b60008060009054906101000a900473ffffffffffffffffffffffffffffffffffffffff169050816000806101000a81548173ffffffffffffffffffffffffffffffffffffffff021916908373ffffffffffffffffffffffffffffffffffffffff1602179055508173ffffffffffffffffffffffffffffffffffffffff168173ffffffffffffffffffffffffffffffffffffffff167f8be0079c531659141344cd1fd0a4f28419497f9722a3daafe3b4186f6b6457e060405160405180910390a35050565b60006129a68473ffffffffffffffffffffffffffffffffffffffff16612e7d565b15612b0f578373ffffffffffffffffffffffffffffffffffffffff1663150b7a026129cf61204b565b8786866040518563ffffffff1660e01b81526004016129f19493929190613ef8565b602060405180830381600087803b158015612a0b57600080fd5b505af1925050508015612a3c57506040513d601f19601f82011682018060405250810190612a39919061382d565b60015b612abf573d8060008114612a6c576040519150601f19603f3d011682016040523d82523d6000602084013e612a71565b606091505b50600081511415612ab7576040517f08c379a0000000000000000000000000000000000000000000000000000000008152600401612aae906141c1565b60405180910390fd5b805181602001fd5b63150b7a0260e01b7bffffffffffffffffffffffffffffffffffffffffffffffffffffffff1916817bffffffffffffffffffffffffffffffffffffffffffffffffffffffff191614915050612b14565b600190505b949350505050565b60606000821415612b64576040518060400160405280600181526020017f30000000000000000000000000000000000000000000000000000000000000008152509050612cc4565b600082905060005b60008214612b96578080612b7f9061476f565b915050600a82612b8f9190614509565b9150612b6c565b60008167ffffffffffffffff811115612bd8577f4e487b7100000000000000000000000000000000000000000000000000000000600052604160045260246000fd5b6040519080825280601f01601f191660200182016040528015612c0a5781602001600182028036833780820191505090505b5090505b60008514612cbd57600182612c2391906145c8565b9150600a85612c3291906147b8565b6030612c3e91906144b3565b60f81b818381518110612c7a577f4e487b7100000000000000000000000000000000000000000000000000000000600052603260045260246000fd5b60200101907effffffffffffffffffffffffffffffffffffffffffffffffffffffffffffff1916908160001a905350600a85612cb69190614509565b9450612c0e565b8093505050505b919050565b612ce3828260405180602001604052806000815250612e90565b5050565b80341015612d2a576040517f08c379a0000000000000000000000000000000000000000000000000000000008152600401612d21906141e1565b60405180910390fd5b80341115612d85573373ffffffffffffffffffffffffffffffffffffffff166108fc8234612d5891906145c8565b9081150290604051600060405180830381858888f19350505050158015612d83573d6000803e3d6000fd5b505b50565b60008073ffffffffffffffffffffffffffffffffffffffff168273ffffffffffffffffffffffffffffffffffffffff161415612df9576040517f08c379a0000000000000000000000000000000000000000000000000000000008152600401612df090614041565b60405180910390fd5b600560008373ffffffffffffffffffffffffffffffffffffffff1673ffffffffffffffffffffffffffffffffffffffff16815260200190815260200160002060000160109054906101000a90046fffffffffffffffffffffffffffffffff166fffffffffffffffffffffffffffffffff169050919050565b50505050565b50505050565b600080823b905060008111915050919050565b60006001549050600073ffffffffffffffffffffffffffffffffffffffff168473ffffffffffffffffffffffffffffffffffffffff161415612f07576040517f08c379a0000000000000000000000000000000000000000000000000000000008152600401612efe90614241565b60405180910390fd5b612f108161203d565b15612f50576040517f08c379a0000000000000000000000000000000000000000000000000000000008152600401612f4790614201565b60405180910390fd5b7f0000000000000000000000000000000000000000000000000000000000000000831115612fb3576040517f08c379a0000000000000000000000000000000000000000000000000000000008152600401612faa90614301565b60405180910390fd5b612fc06000858386612e71565b6000600560008673ffffffffffffffffffffffffffffffffffffffff1673ffffffffffffffffffffffffffffffffffffffff1681526020019081526020016000206040518060400160405290816000820160009054906101000a90046fffffffffffffffffffffffffffffffff166fffffffffffffffffffffffffffffffff166fffffffffffffffffffffffffffffffff1681526020016000820160109054906101000a90046fffffffffffffffffffffffffffffffff166fffffffffffffffffffffffffffffffff166fffffffffffffffffffffffffffffffff1681525050905060405180604001604052808583600001516130bd919061446d565b6fffffffffffffffffffffffffffffffff1681526020018583602001516130e4919061446d565b6fffffffffffffffffffffffffffffffff16815250600560008773ffffffffffffffffffffffffffffffffffffffff1673ffffffffffffffffffffffffffffffffffffffff16815260200190815260200160002060008201518160000160006101000a8154816fffffffffffffffffffffffffffffffff02191690836fffffffffffffffffffffffffffffffff16021790555060208201518160000160106101000a8154816fffffffffffffffffffffffffffffffff02191690836fffffffffffffffffffffffffffffffff16021790555090505060405180604001604052808673ffffffffffffffffffffffffffffffffffffffff1681526020014267ffffffffffffffff168152506004600084815260200190815260200160002060008201518160000160006101000a81548173ffffffffffffffffffffffffffffffffffffffff021916908373ffffffffffffffffffffffffffffffffffffffff16021790555060208201518160000160146101000a81548167ffffffffffffffff021916908367ffffffffffffffff160217905550905050600082905060005b8581101561335357818773ffffffffffffffffffffffffffffffffffffffff16600073ffffffffffffffffffffffffffffffffffffffff167fddf252ad1be2c89b69c2b068fc378daa952ba7f163c4a11628f55a4df523b3ef60405160405180910390a46132f36000888488612985565b613332576040517f08c379a0000000000000000000000000000000000000000000000000000000008152600401613329906141c1565b60405180910390fd5b818061333d9061476f565b925050808061334b9061476f565b915050613282565b50806001819055506133686000878588612e77565b505050505050565b6040518060400160405280600073ffffffffffffffffffffffffffffffffffffffff168152602001600067ffffffffffffffff1681525090565b8280546133b69061470c565b90600052602060002090601f0160209004810192826133d8576000855561341f565b82601f106133f157805160ff191683800117855561341f565b8280016001018555821561341f579182015b8281111561341e578251825591602001919060010190613403565b5b50905061342c9190613430565b5090565b5b80821115613449576000816000905550600101613431565b5090565b600061346061345b8461437c565b614357565b9050808382526020820190508285602086028201111561347f57600080fd5b60005b858110156134af57816134958882613535565b845260208401935060208301925050600181019050613482565b5050509392505050565b60006134cc6134c7846143a8565b614357565b9050828152602081018484840111156134e457600080fd5b6134ef8482856146a0565b509392505050565b600061350a613505846143d9565b614357565b90508281526020810184848401111561352257600080fd5b61352d8482856146a0565b509392505050565b600081359050613544816150a5565b92915050565b600082601f83011261355b57600080fd5b813561356b84826020860161344d565b91505092915050565b600081359050613583816150bc565b92915050565b600081359050613598816150d3565b92915050565b6000815190506135ad816150d3565b92915050565b600082601f8301126135c457600080fd5b81356135d48482602086016134b9565b91505092915050565b600082601f8301126135ee57600080fd5b81356135fe8482602086016134f7565b91505092915050565b600081359050613616816150ea565b92915050565b60006020828403121561362e57600080fd5b600061363c84828501613535565b91505092915050565b6000806040838503121561365857600080fd5b600061366685828601613535565b925050602061367785828601613535565b9150509250929050565b60008060006060848603121561369657600080fd5b60006136a486828701613535565b93505060206136b586828701613535565b92505060406136c686828701613607565b9150509250925092565b600080600080608085870312156136e657600080fd5b60006136f487828801613535565b945050602061370587828801613535565b935050604061371687828801613607565b925050606085013567ffffffffffffffff81111561373357600080fd5b61373f878288016135b3565b91505092959194509250565b6000806040838503121561375e57600080fd5b600061376c85828601613535565b925050602061377d85828601613574565b9150509250929050565b6000806040838503121561379a57600080fd5b60006137a885828601613535565b92505060206137b985828601613607565b9150509250929050565b6000602082840312156137d557600080fd5b600082013567ffffffffffffffff8111156137ef57600080fd5b6137fb8482850161354a565b91505092915050565b60006020828403121561381657600080fd5b600061382484828501613589565b91505092915050565b60006020828403121561383f57600080fd5b600061384d8482850161359e565b91505092915050565b60006020828403121561386857600080fd5b600082013567ffffffffffffffff81111561388257600080fd5b61388e848285016135dd565b91505092915050565b6000602082840312156138a957600080fd5b60006138b784828501613607565b91505092915050565b6138c9816145fc565b82525050565b6138d8816145fc565b82525050565b6138e78161460e565b82525050565b60006138f88261441f565b6139028185614435565b93506139128185602086016146af565b61391b816148a5565b840191505092915050565b60006139318261442a565b61393b8185614451565b935061394b8185602086016146af565b613954816148a5565b840191505092915050565b600061396a8261442a565b6139748185614462565b93506139848185602086016146af565b80840191505092915050565b6000815461399d8161470c565b6139a78186614462565b945060018216600081146139c257600181146139d357613a06565b60ff19831686528186019350613a06565b6139dc8561440a565b60005b838110156139fe578154818901526001820191506020810190506139df565b838801955050505b50505092915050565b6000613a1c602283614451565b9150613a27826148b6565b604082019050919050565b6000613a3f605983614451565b9150613a4a82614905565b606082019050919050565b6000613a62602683614451565b9150613a6d8261497a565b604082019050919050565b6000613a85602a83614451565b9150613a90826149c9565b604082019050919050565b6000613aa8602383614451565b9150613ab382614a18565b604082019050919050565b6000613acb602583614451565b9150613ad682614a67565b604082019050919050565b6000613aee603183614451565b9150613af982614ab6565b604082019050919050565b6000613b11601a83614451565b9150613b1c82614b05565b602082019050919050565b6000613b34603983614451565b9150613b3f82614b2e565b604082019050919050565b6000613b57602b83614451565b9150613b6282614b7d565b604082019050919050565b6000613b7a602683614451565b9150613b8582614bcc565b604082019050919050565b6000613b9d600583614462565b9150613ba882614c1b565b600582019050919050565b6000613bc0602c83614451565b9150613bcb82614c44565b604082019050919050565b6000613be3602083614451565b9150613bee82614c93565b602082019050919050565b6000613c06601a83614451565b9150613c1182614cbc565b602082019050919050565b6000613c29603283614451565b9150613c3482614ce5565b604082019050919050565b6000613c4c602683614451565b9150613c5782614d34565b604082019050919050565b6000613c6f602283614451565b9150613c7a82614d83565b604082019050919050565b6000613c92600083614446565b9150613c9d82614dd2565b600082019050919050565b6000613cb5601083614451565b9150613cc082614dd5565b602082019050919050565b6000613cd8603383614451565b9150613ce382614dfe565b604082019050919050565b6000613cfb601683614451565b9150613d0682614e4d565b602082019050919050565b6000613d1e601d83614451565b9150613d2982614e76565b602082019050919050565b6000613d41601683614451565b9150613d4c82614e9f565b602082019050919050565b6000613d64602183614451565b9150613d6f82614ec8565b604082019050919050565b6000613d87602e83614451565b9150613d9282614f17565b604082019050919050565b6000613daa601f83614451565b9150613db582614f66565b602082019050919050565b6000613dcd601383614451565b9150613dd882614f8f565b602082019050919050565b6000613df0602f83614451565b9150613dfb82614fb8565b604082019050919050565b6000613e13602d83614451565b9150613e1e82615007565b604082019050919050565b6000613e36602283614451565b9150613e4182615056565b604082019050919050565b604082016000820151613e6260008501826138c0565b506020820151613e756020850182613e8a565b50505050565b613e8481614682565b82525050565b613e938161468c565b82525050565b6000613ea58285613990565b9150613eb1828461395f565b9150613ebc82613b90565b91508190509392505050565b6000613ed382613c85565b9150819050919050565b6000602082019050613ef260008301846138cf565b92915050565b6000608082019050613f0d60008301876138cf565b613f1a60208301866138cf565b613f276040830185613e7b565b8181036060830152613f3981846138ed565b905095945050505050565b6000602082019050613f5960008301846138de565b92915050565b60006020820190508181036000830152613f798184613926565b905092915050565b60006020820190508181036000830152613f9a81613a0f565b9050919050565b60006020820190508181036000830152613fba81613a32565b9050919050565b60006020820190508181036000830152613fda81613a55565b9050919050565b60006020820190508181036000830152613ffa81613a78565b9050919050565b6000602082019050818103600083015261401a81613a9b565b9050919050565b6000602082019050818103600083015261403a81613abe565b9050919050565b6000602082019050818103600083015261405a81613ae1565b9050919050565b6000602082019050818103600083015261407a81613b04565b9050919050565b6000602082019050818103600083015261409a81613b27565b9050919050565b600060208201905081810360008301526140ba81613b4a565b9050919050565b600060208201905081810360008301526140da81613b6d565b9050919050565b600060208201905081810360008301526140fa81613bb3565b9050919050565b6000602082019050818103600083015261411a81613bd6565b9050919050565b6000602082019050818103600083015261413a81613bf9565b9050919050565b6000602082019050818103600083015261415a81613c1c565b9050919050565b6000602082019050818103600083015261417a81613c3f565b9050919050565b6000602082019050818103600083015261419a81613c62565b9050919050565b600060208201905081810360008301526141ba81613ca8565b9050919050565b600060208201905081810360008301526141da81613ccb565b9050919050565b600060208201905081810360008301526141fa81613cee565b9050919050565b6000602082019050818103600083015261421a81613d11565b9050919050565b6000602082019050818103600083015261423a81613d34565b9050919050565b6000602082019050818103600083015261425a81613d57565b9050919050565b6000602082019050818103600083015261427a81613d7a565b9050919050565b6000602082019050818103600083015261429a81613d9d565b9050919050565b600060208201905081810360008301526142ba81613dc0565b9050919050565b600060208201905081810360008301526142da81613de3565b9050919050565b600060208201905081810360008301526142fa81613e06565b9050919050565b6000602082019050818103600083015261431a81613e29565b9050919050565b60006040820190506143366000830184613e4c565b92915050565b60006020820190506143516000830184613e7b565b92915050565b6000614361614372565b905061436d828261473e565b919050565b6000604051905090565b600067ffffffffffffffff82111561439757614396614876565b5b602082029050602081019050919050565b600067ffffffffffffffff8211156143c3576143c2614876565b5b6143cc826148a5565b9050602081019050919050565b600067ffffffffffffffff8211156143f4576143f3614876565b5b6143fd826148a5565b9050602081019050919050565b60008190508160005260206000209050919050565b600081519050919050565b600081519050919050565b600082825260208201905092915050565b600081905092915050565b600082825260208201905092915050565b600081905092915050565b600061447882614646565b915061448383614646565b9250826fffffffffffffffffffffffffffffffff038211156144a8576144a76147e9565b5b828201905092915050565b60006144be82614682565b91506144c983614682565b9250827fffffffffffffffffffffffffffffffffffffffffffffffffffffffffffffffff038211156144fe576144fd6147e9565b5b828201905092915050565b600061451482614682565b915061451f83614682565b92508261452f5761452e614818565b5b828204905092915050565b600061454582614682565b915061455083614682565b9250817fffffffffffffffffffffffffffffffffffffffffffffffffffffffffffffffff0483118215151615614589576145886147e9565b5b828202905092915050565b600061459f82614646565b91506145aa83614646565b9250828210156145bd576145bc6147e9565b5b828203905092915050565b60006145d382614682565b91506145de83614682565b9250828210156145f1576145f06147e9565b5b828203905092915050565b600061460782614662565b9050919050565b60008115159050919050565b60007fffffffff0000000000000000000000000000000000000000000000000000000082169050919050565b60006fffffffffffffffffffffffffffffffff82169050919050565b600073ffffffffffffffffffffffffffffffffffffffff82169050919050565b6000819050919050565b600067ffffffffffffffff82169050919050565b82818337600083830152505050565b60005b838110156146cd5780820151818401526020810190506146b2565b838111156146dc576000848401525b50505050565b60006146ed82614682565b91506000821415614701576147006147e9565b5b600182039050919050565b6000600282049050600182168061472457607f821691505b6020821081141561473857614737614847565b5b50919050565b614747826148a5565b810181811067ffffffffffffffff8211171561476657614765614876565b5b80604052505050565b600061477a82614682565b91507fffffffffffffffffffffffffffffffffffffffffffffffffffffffffffffffff8214156147ad576147ac6147e9565b5b600182019050919050565b60006147c382614682565b91506147ce83614682565b9250826147de576147dd614818565b5b828206905092915050565b7f4e487b7100000000000000000000000000000000000000000000000000000000600052601160045260246000fd5b7f4e487b7100000000000000000000000000000000000000000000000000000000600052601260045260246000fd5b7f4e487b7100000000000000000000000000000000000000000000000000000000600052602260045260246000fd5b7f4e487b7100000000000000000000000000000000000000000000000000000000600052604160045260246000fd5b6000601f19601f8301169050919050565b7f455243373231413a206f776e657220696e646578206f7574206f6620626f756e60008201527f6473000000000000000000000000000000000000000000000000000000000000602082015250565b7f50726f7669646520612076616c696420737570706c7920692e652e206772656160008201527f746572207468616e2063757272656e7420737570706c7920616e64206c65737360208201527f207468616e2f657175616c20746f206d617820737570706c7900000000000000604082015250565b7f4f776e61626c653a206e6577206f776e657220697320746865207a65726f206160008201527f6464726573730000000000000000000000000000000000000000000000000000602082015250565b7f455243373231413a206f776e657220717565727920666f72206e6f6e6578697360008201527f74656e7420746f6b656e00000000000000000000000000000000000000000000602082015250565b7f455243373231413a20676c6f62616c20696e646578206f7574206f6620626f7560008201527f6e64730000000000000000000000000000000000000000000000000000000000602082015250565b7f455243373231413a207472616e7366657220746f20746865207a65726f20616460008201527f6472657373000000000000000000000000000000000000000000000000000000602082015250565b7f455243373231413a206e756d626572206d696e74656420717565727920666f7260008201527f20746865207a65726f2061646472657373000000000000000000000000000000602082015250565b7f457863656564206d61782061646f7074696f6e20616d6f756e74000000000000600082015250565b7f455243373231413a20617070726f76652063616c6c6572206973206e6f74206f60008201527f776e6572206e6f7220617070726f76656420666f7220616c6c00000000000000602082015250565b7f455243373231413a2062616c616e636520717565727920666f7220746865207a60008201527f65726f2061646472657373000000000000000000000000000000000000000000602082015250565b7f455243373231413a207472616e736665722066726f6d20696e636f727265637460008201527f206f776e65720000000000000000000000000000000000000000000000000000602082015250565b7f2e6a736f6e000000000000000000000000000000000000000000000000000000600082015250565b7f4552433732314d657461646174613a2055524920736574206f66206e6f6e657860008201527f697374656e7420746f6b656e0000000000000000000000000000000000000000602082015250565b7f4f776e61626c653a2063616c6c6572206973206e6f7420746865206f776e6572600082015250565b7f455243373231413a20617070726f766520746f2063616c6c6572000000000000600082015250565b7f455243373231413a207472616e736665722063616c6c6572206973206e6f742060008201527f6f776e6572206e6f7220617070726f7665640000000000000000000000000000602082015250565b7f536f72727921212063616e2774206d696e74207768656e2073616c652069732060008201527f636c6f7365640000000000000000000000000000000000000000000000000000602082015250565b7f455243373231413a20617070726f76616c20746f2063757272656e74206f776e60008201527f6572000000000000000000000000000000000000000000000000000000000000602082015250565b50565b7f5472616e73666572206661696c65642e00000000000000000000000000000000600082015250565b7f455243373231413a207472616e7366657220746f206e6f6e204552433732315260008201527f6563656976657220696d706c656d656e74657200000000000000000000000000602082015250565b7f4e65656420746f2073656e64206d6f7265204554482e00000000000000000000600082015250565b7f455243373231413a20746f6b656e20616c7265616479206d696e746564000000600082015250565b7f4e6565647320746f2073656e64206d6f72652065746800000000000000000000600082015250565b7f455243373231413a206d696e7420746f20746865207a65726f2061646472657360008201527f7300000000000000000000000000000000000000000000000000000000000000602082015250565b7f455243373231413a20756e61626c6520746f2067657420746f6b656e206f662060008201527f6f776e657220627920696e646578000000000000000000000000000000000000602082015250565b7f5265656e7472616e637947756172643a207265656e7472616e742063616c6c00600082015250565b7f5265616368696e67206d617820737570706c7900000000000000000000000000600082015250565b7f455243373231413a20756e61626c6520746f2064657465726d696e652074686560008201527f206f776e6572206f6620746f6b656e0000000000000000000000000000000000602082015250565b7f455243373231413a20617070726f76656420717565727920666f72206e6f6e6560008201527f78697374656e7420746f6b656e00000000000000000000000000000000000000602082015250565b7f455243373231413a207175616e7469747920746f206d696e7420746f6f20686960008201527f6768000000000000000000000000000000000000000000000000000000000000602082015250565b6150ae816145fc565b81146150b957600080fd5b50565b6150c58161460e565b81146150d057600080fd5b50565b6150dc8161461a565b81146150e757600080fd5b50565b6150f381614682565b81146150fe57600080fd5b5056fea2646970667358221220bcf090b1595977e63ba26cf6258fd50af24f328540f87ea7574202f7ed811be964736f6c6343000804003368747470733a2f2f646162756e6e792e6d7970696e6174612e636c6f75642f697066732f516d516f754c346b3837514145664b53474b79564835516e345a6763554d616a54616f53484b5a6e35555132736f",
  "linkReferences": {},
  "deployedLinkReferences": {}
}